:020000040000fa
:10000000f8ff0020571a000093180000a7190000fd
:1000100000000000000000000000000000000000e0
:100020000000000000000000000000006b21000044
:1000300000000000000000006b2100006b210000a8
:100040006b2100006b2100006b2100006b21000080
:100050006b2100006b2100006b2100006b21000070
:100060006b2100006b2100006b2100006b21000060
:100070006b2100006b210000000000006b210000dc
:100080006b2100006b2100006b2100006b21000040
:100090006b2100006b2100006b2100006b21000030
:1000a0006b2100006b2100006b2100006b21000020
:1000b0006b210000000000006b2100006b2100009c
:1000c0006b2100006b2100006b2100006b21000000
:1000d0006b2100006b2100006b2100006b210000f0
:1000e0006b2100006b2100006b2100006b210000e0
:1000f0006b2100006b2100006b2100006b210000d0
:100100006b2100006b2100006b2100006b210000bf
:100110006b2100006b2100006b2100006b210000af
:100120006b210000cf1f00006b2100006b2100003d
:100130006b2100006b2100006b2100006b2100008f
:100140006b2100006b2100006b2100006b2100007f
:0c0150006b2100006b2100006b210000ff
:020000040000fa
:10015c00f8b5c046f8bc08bc9e467047f91d0000b7
:10016c00f8b5c046f8bc08bc9e467047d51d0000cb
:020000040000fa
:08017c00080000000100000072
:020000040000fa
:10018400f0b585b000930393009b02900c00160019
:10019400150001900f00002b00d0c9e08a424ad913
:1001a400100001f06dff48b12023019f1b1adf40ae
:1001b400019b84408340854027430193aab22b0cc2
:1001c400b7fbf3f1160094461a004a434e43bf1a94
:1001d400019a3f04140c27430a00be4207d97f1931
:1001e400013abd4203d8be4201d98a1e7f19be1b03
:1001f400b6fbf3f14b436446f61a6b464c439b88bb
:1002040036041e430f00b44207d97619013fb542a4
:1002140003d8b44201d98f1e76191204341b3a4311
:100224000a9b23b1c4401c6000230a994b60100050
:10023400009905b0f0bd02b9ffde100001f020ff07
:10024400b8bb0123a41b00932b0cb4fbf3f21f00d7
:1002540011005743aeb27143e41b019f24043f0cc9
:100264003c439446a1420ad9012764197f42bc4405
:10027400a54204d8a14202d9023a94466419641ae8
:10028400b4fbf3f77b43e41a6b467e439b88240458
:100294001c433900a64207d964190139a54203d881
:1002a400a64201d9b91e641963461a04a41b0a4361
:1002b400b6e7202223000199121ad3408440d1408a
:1002c400019a8540824021438c46290cb3fbf1f40a
:1002d40001920a00624326009b1a6246afb27e4333
:1002e400120c1b04134322009e4207d95b19013ae6
:1002f4009d4203d89e4201d9a21e5b199b1bb3fbee
:10030400f1f671435b1a614677438cb21b041c43bc
:100314003100a74207d964190139a54203d8a7427d
:1003240001d9b11e641912040a43e41b00928be73d
:10033400009b8b420ad90a9b002b00d1abe0029aa6
:1003440059601a60002300931a0070e7039801f0c3
:1003540097fed8b9039ba34203d3029b02009e429b
:100364000ad8029b01229e1b039b0196e41a029b5e
:10037400b342ad416d42671b0a9b0093002b00d131
:1003840055e7019982c30023009350e720231b1ae9
:1003940001933300019a039fd34087401f432300f6
:1003a4000199d340029a8440ca4022439446029a57
:1003b400390c8240b3fbf1f402920a008640624396
:1003c400009626009b1a6246bdb26e43120c1b04b3
:1003d400134322009e4207d9db19013a9f4203d8f6
:1003e4009e4201d9a21edb199e1bb6fbf1f46346a3
:1003f40061436543761a360499b20e432300b5422d
:1004040007d9f619013bb74203d8b54201d9a31e57
:10041400f61912041a436b461c88009b711b8c4608
:10042400190c230096b2150c6c4373434d4371436e
:100434001e0c091971188c4202d9802464022d19ea
:100444000c0c9bb209046519c918ac4503d30bd134
:10045400029b8b4208d2009b013ace1ab1428941d9
:100464004942cf193100ed1b0a9b0093002b00d1a8
:10047400dde6029b019c591a63465d1b029b8b427d
:100484009b415b42ed1a2b00c140a340c540194378
:0a0494000a9b22c377e70a9b55e795
:020000040000fa
:02049e007047a5
:020000040000fa
:1004a0000023f0b506001500afb005910193059942
:1004b0000b78002b00d10ce101235b420a930eabb9
:1004c00000240c93802309940b940d930b5d0bb1c6
:1004d000252b29d134b12200300001f063fe059ba9
:1004e0001b190593059b1a78252a00d0e6e040f2f7
:1004f000020c102108270133029305930598037815
:100500002b2b1bd025d8202b1bd0232b1dd02a2be7
:100510002ad001f03dfd0b90059b1a78303a092a4c
:1005200033d801330593f7e70134cfe70122099b64
:1005300080180393134309930590dfe70423099a76
:100540000ee0099b03933b430be0099b03930b4392
:1005500007e02d2bead0302bd9d16246099b0393bb
:10056000134309930130e7e72b6801301a1d1b681c
:1005700005902a600b93002b07da099a5b420392dd
:10058000012203990b934a400992099bda0702d58d
:10059000022293430993059b1a782e2a0ed100223a
:1005a000581c0a9205905a782a2a28d102330593ba
:1005b0002b681a1d1b682a6003930a9305a801f093
:1005c000d5fd059b0700187802f09cf8692800d13a
:1005d00082e035dc632800d1d2e01bdc252800d185
:1005e000dbe0612859d0252306aa1370029b0593ee
:1005f000002309930b93013b0a930233aee001f011
:10060000c7fc0a90059b1a78303a092ad6d80133dc
:100610000593f7e764285fd06728e4dc2a003900f7
:1006200006a801f066fe002800d1a5e0059b09a9f7
:100630005a1c05921b7806aa300002f0a6f83ce08e
:10064000702800d17ae016dc6e2800d18de06f288a
:10065000c9d12b000022390006a800f09afd00281d
:1006600000d189e0059b06aa013309a93000059352
:1006700001f044f821e075283fd078284dd0732848
:10068000b1d1802f00d077e0059b2a680133059314
:10069000131d2b601268002360e02a00390006a8b1
:1006a00001f027fe002867d0059b09a95a1c059276
:1006b0001b7806aa300002f068f82418019b1c1968
:1006c000a34200dc71e04f22394b1a6001235b42e8
:1006d000019301982fb0f0bd2b000122390006a82c
:1006e00000f057fd002847d0059b06aa013309a951
:1006f0003000059300f0a8fddfe72b000022390051
:1007000006a800f046fdb8b3059b06aa013309a967
:100710003000059301f074f9cfe72b000022390077
:1007200006a800f036fd38b3059b5a1c05921b78cd
:1007300006aa09a9300000f0e1f9bee72b0000226b
:10074000f02106a800f025fdb0b1059b079a013302
:100750000593069b134333b9164a163209a9300094
:1007600001f01cfaa9e77823e2e7019b39001a1986
:1007700006a82b0000f0f9ff059b013305939de7c8
:10078000802ff9d1059b013305932b681a1d1b6837
:100790002a6006aa13700123e0e7802fecd1059ba5
:1007a00006aa013305931070f5e701947fe6c04671
:0807b000e007002044250000d1
:020000040000fa
:1007b800a80700201c00000000000000c40700205b
:1007c800080000000000000068070020400000004a
:1007d8000000000018060020a00000000000000033
:1007e800d40700200400000000000000b806002024
:1007f8006000000000000000e80700200100000081
:1008080000000000d80700200400000000000000dd
:100818001807002050000000000000000804002015
:100828001002000000000000ec0700206c0000002f
:1008380001000000f8070020f4070020f807002056
:10084800000000002500000008000020000400004f
:100858000000000000000000000000000000000090
:100868000000000000000000000000000000000080
:100878008f270000000000000000000000000000ba
:1008880000000000d3170000000000000000000076
:100898000000000000000000000000000000000050
:1008a800000000200804000000000000b808002034
:1008b800200000000100000001000000030000000b
:1008c8000000000000000000000000000000000020
:1008d80000000000cc070020cc0700200800000022
:1008e80000000000dc0700200400000000000000f9
:1008f800e007002004000000000000005808002065
:10090800600000000100000001000000030000007a
:1009180000000000000000000000000000000000cf
:10092800000000004d190000000000000000000059
:1009380000000000392700005327000000000000d5
:10094800000000000000000000000000000000009f
:10095800000000000000000000000000000000008f
:100968000000000000000000e40700200400000070
:10097800000000000000000000000000444444445f
:020000040000fa
:10098800f0b587b0039003a801f080fa002802dad6
:10099800002007b0f0bd039b1b095d1e202d0ad95e
:1009a80040f2ff12023b934224d84d4adb089b18c1
:1009b800043b1d7801352a000120002101f00afec0
:1009c800002443428c4100930194464c00982268cd
:1009d80063681040020001990b401a43f2bb039b65
:1009e80005a81033059301f001fe50b90c223e4bc7
:1009f8001a60cee73a4adb099b18043b1d7811358b
:100a0800d9e73a490c68a04206d0059b0400103b80
:100a180005930123103483600125059be2180a60c1
:100a28002b43083a083c28c26360002cb0d0200051
:100a380001f0eafb58b123686168ab43e31a5a68ce
:100a4800aa4352185a606168a94362501c002000ea
:100a5800039901f09cfc200008309ae7204a2449b9
:100a68003c3290bb584203404b43db0ed65c2036e9
:100a7800300001f055fd731cdb001a4ae458083bae
:100a88009b189c42a1d0272e25dd0235ae4201dc01
:100a98003f2e20d101226368039f9343dd1b28006a
:100aa800009301f0cdfa864215d1e268a168e319f6
:100ab800da60996093609a68d360012217431f60d7
:100ac8005d60009be5506760c1e7434203404b43cc
:100ad800db0ed65ccce73100200001f033f8b6e736
:100ae800f018000010040020e0070020080400208f
:040af80029e66b0779
:020000040000fa
:100afc00f0b58fb00d934b680c9006938b680d007e
:100b0c000793cb6816000393069b0f68002b42db00
:100b1c0002239f4310233b400a93079b04930a9b99
:100b2c003bb1726833681343079a13b11300023b4d
:100b3c00049308233b400b935a1e9341049ad31af7
:100b4c0004933368039a0893736809932b695c1eaa
:100b5c0000231355069b0593012c1fdc0a9b002bcd
:100b6c0051d10b9b1bb12023039a013c13552b69cc
:100b7c0000975a1e039b121b19190c98079b00f027
:100b8c0042fd0c9b5b68db0503d56b68984200da71
:100b9c0018000fb0f0bd01230693bbe7089b099a20
:100bac00134363b9059b002b09dc069a049b9b1a23
:100bbc00059a9b18002bd1dd02231f42ced00f22a9
:100bcc00089b013c134018005730092b01dc3033d3
:100bdc0018000d9b413b192b06d820230343613b86
:100bec00192b01d801f08ffd039b1855059b013b78
:100bfc000593099b1a07089b1b091a43099b08922a
:100c0c001b090993a8e70cce1343002ba9d0039b17
:100c1c000d9a1b19013b1a703023039a023c135591
:020c2c009fe740
:020000040000fa
:100c2e0041f20003c4f200030220187641f20041a3
:100c3e00c4f2000100220a7441f60001c4f2000160
:100c4e0008621a8641f20002c4f2000280214904b1
:100c5e0013690b42fcd046f22003c0f280031b68de
:100c6e005b009b0e9b0240f200221343d200c4f2a3
:100c7e000002536341f20002c4f2000280214904d3
:100c8e0013690b42fcd041f20003c4f200030222ae
:100c9e001a86d202c4f200028021490413690b4263
:100cae00fcd041f60043c4f2000340f20712c0f23a
:100cbe0001021a6241f60042c4f200020421536896
:100cce001942fcd141f60043c4f20003cc2240216c
:100cde00995041f60042c4f20002cc20135819423a
:100cee00fcd041f60043c4f20003dc2240219950af
:100cfe0041f60042c4f20002dc2013581942fcd027
:100d0e0041f60043c4f20003e0224021995041f61f
:100d1e000042c4f20002e02013581942fcd0704782
:020000040000fa
:100d2e00f0b5c64600b540f26873c2f200035a6bc6
:100d3e0059691961002a5fd0916847f6ff7399428d
:100d4e004dd940f26873c2f200035b6900251c00a6
:100d5e0047f6ff720023a4185d4140f26878c2f294
:100d6e00000843465b689b69984700270600434688
:100d7e001b69834204d94ff6ff720023b6185f41f8
:100d8e0040f26873c2f20003196a00230a00921936
:100d9e007b41ab4202d83cd1a2423ad98e1940f2e5
:100dae006873c2f20003de6140f26873c2f20003a0
:100dbe00db694ff6ff721a4205d140f26873c2f238
:100dce0000030122da6140f26873c2f20003d869af
:100dde0080b25b685b69984704bc9046f0bd916831
:100dee0040f26873c2f200035b6900251c00002309
:100dfe000a00a4185d41b0e740f26873c2f2000326
:100e0e005b6900251c0047f6ff720023a4185d41a4
:0e0e1e00a3e740f26873c2f20003dc61c4e790
:020000040000fa
:100e2c00f8b540f26874c2f20004656b63689b69a4
:100e3c0098476061606901f01bfba66ae76a0023b2
:100e4c00020092197b41a262e362002d5bd040f25a
:100e5c006874c2f200043022a35c0133a35401f085
:100e6c0062f9646b44b1a36833b90125002740f2e1
:100e7c006876c2f2000613e040f21865c2f2000573
:100e8c00002400261fe0e06901f0b9f8e3680bb11b
:100e9c0020699847746b002ceed0a368002bebd123
:100eac0025756575a37813b9e368002bebd1200089
:100ebc0000f0bafca378002be8d16770e6e70134a8
:100ecc002035052c17d0630140f21861c2f20001e5
:100edc008c4663445b7d002bf1d0630163445e75eb
:100eec00ab78012bebd1620162446b6893602800f4
:100efc0000f012f8e3e740f26873c2f2000330210d
:100f0c005a5c013a5a5401f016fc0400fff709ff31
:080f1c00200001f014fcf8bdf7
:020000040000fa
:100f2400f0b5de4657464e464546e0b585b08146a7
:100f3400002857d040f26873c2f20003596b8368eb
:100f44009a4661b18b685246039240f200089a4572
:100f54004ad3002200238b460092019309e05246b3
:100f6400826040f26873c2f200035863012032e0e9
:100f7400e3465e46b66834000025009a019b1219c8
:100f84006b41009201935e46b669b44696b16646db
:100f9400b66800210f00009a019bb6185f414745cf
:100fa4002bd8e5d1039b9e42e2d960465946009a6c
:100fb400019b01e0300059464c46a0618c61002041
:100fc40051468a1a4b469a609b6923b14a469168f6
:100fd4009a68521a9a6005b03cbc90469946a2465b
:100fe400ab46f0bd0020f6e740f26873c2f200039e
:100ff4005863816100220120e2e760465946009a65
:04100400019bd9e78c
:020000040000fa
:10100800f7b5002856d00838436801221e009643d9
:1010180085192a680400934200d0ffde22686b68b5
:101028001340012213420fd1200001f0edf80028ef
:1010380041d1280001f000f90028efd001226b68a7
:101048009343f618ed18e9e7012333436360300052
:101058002b6000f0f5ff019001f062fa22686b68de
:10106800134001221342dfd0174f019a386879687c
:1010780001f0a4fa012318420dd1019a01200021a0
:1010880001f0a8fa0b0010b13a6802433a6013b1b4
:101098007b680b437b60019b0b4a0133db009b1889
:1010a8001a005b68083a66602e60e360a260d4604c
:1010b800e3689c60f7bd012223689343e41a6368e0
:0c10c8009343f618b5e7c0461004002062
:020000040000fa
:1010d40070b50d00002954d0002855d140f2687431
:1010e400c2f2000438230122e2540b686360db6817
:1010f4009847e0600026a0220023002100f025fe8e
:1011040046f60042c0f2dc22002300f0e1fe022297
:1011140000238018594120620423eb562372266170
:101124004ff6ff73a3615b08e36100220023a26210
:10113400e36266633023e65440f62d60c0f200009b
:1011440063681b680021984763681a690ab1208b99
:10115400904740f26874c2f20004e06980b26368a8
:101164005b69984763685b68984740f21860c2f20d
:101174000000a022002101f0a5fa02232370200020
:0e11840070bd01204042fbe701204042f8e729
:020000040000fa
:1011920010b588293ad014dc81294ad003dc802991
:1011a20047d0002010bd822910d08429f9d11968b6
:1011b2002ab30a1d1a6000228b5e0360db174360ac
:1011c20010e0a0292ed00fdc9029ead1196807245b
:1011d2006ab30919a1430a0008321a600b684c6805
:1011e200036044600120dde7c02901d0f029d8d195
:1011f2001a68111d1960136803600023dfe70c1dd4
:101202001c600b689bb203604260ebe7196822b175
:101212000a1d1a600023cb56cfe70c1d1c600b6819
:10122200dbb2f0e71a68111d19601368c5e70731d0
:10123200d0e719681ab10a1d1a600b68bde70c1dc8
:061242001c600b68dfe7f1
:020000040000fa
:10124800f0b54b6889b005930b6807009c46079377
:10125800cb680c008e6810685168cd0f0493002d80
:1012680041d00b000200002150429941059b002b00
:1012780007db022263469343079315b9079b5a0776
:1012880028d5731e07aa02920a22009301920b0026
:101298000200200000f0baf815b9079b5a071dd5bf
:1012a80001382d2305b9023b049a135423695a1ea9
:1012b800049b121a1918079b38000093330000f09a
:1012c800a4f97b68db0503d56368984200da180047
:1012d80009b0f0bd1b07db0ff31ad3e71b07e5d5f1
:0e12e80001382023e0e7059b002bc2dac6e7a1
:020000040000fa
:1012f60070b5b2b0002000f00df941f28830c0f2ae
:1013060000002f2100f042fd01f067f841f2883617
:10131600c0f200063500303541f20844c0f2000440
:10132600083423e0002001f0b5f800f054ff020075
:10133600290019a801f066f919a801f0eef90100d3
:1013460019a800f023fd00f0e2fd0200310064312f
:10135600684601f057f9684601f0dff90100684672
:1013660000f014fd0221200000f010fd01f0f3f959
:1013760049f28063c0f29803013b002bfcd1d1e710
:020000040000fa
:021386007047ae
:020000040000fa
:101388000a0d232323232323232323232323232354
:101398002323232323232323232323232323232315
:1013a8002323232323232323232323232323230028
:1013b8000a0d5468652067656e65726174656420fe
:1013c80033322d6269742072616e646f6d206e75a0
:1013d8006d6265722069733a0930782530386c7807
:1013e800000000000a0d4e756d626572206f662060
:1013f8007469636b73207061737365643a0925308f
:0c14080031306c64000000000a0d000090
:020000040000fa
:10141400f0b5050085b019000c9b100001931a6803
:101424002b696c68013bef681d00002c00da012475
:1014340040f2000c664640f2020cfe540a9e012360
:10144400361b0296664616400b9ad2170392002d5d
:1014540003dcbbb1280005b0f0bd02000a433ab971
:10146400002c05dc029a1219002af2dd002ef0d0bd
:101474000b9a039b00f02cfd013d130030327a558a
:10148400013ce4e71023019a12689a431300019a7d
:041494001360dfe71b
:020000040000fa
:10149800f0b51600050002278369426987b00293f8
:1014a800d31a03939b1904910596019302ac3a0051
:1014b8002100286800f057ff019b984208d1ab68cb
:1014c800ea68ab619a18aa626b61300007b0f0bd98
:1014d80000280cda102200236968ab620a43ab616a
:1014e8006b616a60022f12d06368f61aede7019b00
:1014f8001b1a01936368984202d9c01a0834013f45
:1015080023681b1823606368181a6060cfe71e0001
:02151800dbe70f
:020000040000fa
:10151a0010b500f0d0fd44f20003c4f20013042217
:10152a005a6040f2f073c2f200031b681868002187
:10153a0001f0aaf840f6d403c2f200031b68186847
:10154a00002101f0a1f801f006f8fff76bfb00f0ab
:10155a00d0fa01f090f8fef79dff00f08cfb00f046
:10156a001efafff70bff42f25471c0f2000100208d
:10157a00fff7abfd40f2d473c2f20003186001f02a
:0c158a004af801f0b3f800f06efe10bd4e
:020000040000fa
:10159600f8b5846a05000f00160054b1ab6a6a6993
:1015a6009b1ab3420cd2320039002800fff771ffb4
:1015b60005e000f0ecff03002000002beed0f8bda4
:1015c600002ef0d02b0034331b785bb2002b1bdbd4
:1015d6003400dbb2621eb95c994212d12200390096
:1015e6002800fff756ffa042e9d33f19341b22001b
:1015f6003900686901f053f86b6930001c196c6199
:0c160600dde71400002ae5d13400f0e715
:020000040000fa
:10161200f0b51d00012389b014000e9a06001a408d
:10162200039102920ab9a5420ad822000399300016
:1016320000f0b7fda54203d82500280009b0f0bd8f
:101642002f1b01973a00102f00d91022202104a845
:1016520001f039f8019b0f2b0ed80f2204a93a4052
:10166200300000f09efd029b002be6d12200039980
:10167200300000f096fde0e7102204a9300000f0ef
:0a16820090fd019b103b0193e4e78b
:020000040000fa
:10168c000021f0b5174b184a934208d340f20b0ccb
:10169c000027164a1368516823b919b9f0bd19709f
:1016ac000133f1e7100095680c305c18b5b1654654
:1016bc00ed1a5219a3420ad10b00032213405a1ef1
:1016cc00934189085918890040180200e2e75d1c13
:1016dc00ae5c1e702b00ede71f700133a342fbd1f3
:1016ec00f3e7c0460000002000000020b80700000f
:020000040000fa
:1016fc00f0b50b680c008f68cd68496887b00600a0
:10170c000593002902db02218b43059305a953683d
:10171c00126802910821009701912000fff774fed6
:10172c00059bdb0602d5302301382b54059b1b0788
:10173c0002d5202301382b54236929185a1e059be6
:10174c00121a009330003b00fff75dff7368db0556
:0e175c0003d56368984200da180007b0f0bdac
:020000040000fa
:10176a0010b584291fd007dc812915d0822922d0ff
:10177a00802911d0002010bd90291cd008dc8829ae
:10178a00f8d119680c1d1c600b6803601a7010e010
:10179a00a02901d0c029edd119680c1d1c600b6865
:1017aa0003601a6005e019680c1d1c600b68036071
:1017ba001a800120dfe719680c1d1c600b680360a2
:0817ca001a60d2175a60f4e71f
:020000040000fa
:1017d2007fb51600c2680d0013000091591e8b419f
:1017e200f31a019383680400039269460222006897
:1017f200029300f0a7fd002808dc1822082302400b
:10180200534062681343636006000fe0019b83420a
:10181200fad2a268c01ae3681018e26320642bb1fe
:10182200531ce3631378ad19013d2b70300004b0f3
:0218320070bd87
:020000040000fa
:1018340010b5010040f26873c2f200035a6b12b390
:10184400824204d183699bb1002206e01a009369a5
:10185400dbb19942fad18b6923b18c68986800197d
:1018640098603ab18b699361002000238b6110bdad
:101874001a00f6e740f26873c2f200035a6b9269e9
:0e1884005a630120f1e70020f1e70020efe7b2
:020000040000fa
:02189200fee76f
:020000040000fa
:1018940000230e4a10b513600d4a0e4c13600e4a15
:1018a40013600e4a13600e4a13600e4a53621361aa
:1018b4000133936000f00eff00f0d7fc0a4b9c420a
:1018c40000d310bd08cc9847f8e7c046dc070020d9
:1018d40024070020680100002007002018070020ca
:0c18e4001c070020280700206c010000f9
:020000040000fa
:1018f0002021222324242525262627272828282896
:10190000292929292a2a2a2a2b2b2b2b2c2c2c2c2f
:101910002c2c2c2c2d2d2d2d2d2d2d2d2e2e2e2ef7
:101920002e2e2e2e2f2f2f2f2f2f2f2f000117026d
:101930001d1813031e1b190b1408040d1f161c126f
:0c1940001a0a070c1511090610050f0efd
:020000040000fa
:10194c0070b504000d0008b9002070bd43689b06fb
:10195c0007d543698269934215d80023a362a3611a
:10196c006361e16b236c994204d2c91a012220688d
:10197c0000f00cff00232364e363002de4d0206807
:10198c0000f0fafee1e70022c36a11009847636990
:0a199c00002be2d101204042d7e702
:020000040000fa
:0219a600fee75a
:020000040000fa
:1019a80042f20043c4f2002301221a6042f20042cc
:1019b800c4f20022012113691942fcd142f200430a
:1019c800c4f2002310221a600d3a1a73094a9a8346
:1019d80033229a7240f2c472c2f2000200211160ee
:1019e80020225a7242f20042c4f200221369002bec
:0819f800fcd170477fbbffff2b
:020000040000fa
:101a0000f0b50b680c008f68cd68496887b0060098
:101a10000593002902db02218b43059305a9536836
:101a2000126802910a21009701912000fff7f2fc51
:101a3000236929185a1e059b121a009330003b0097
:101a4000fff7e7fd7368db0503d56368984200daaa
:061a5000180007b0f0bd14
:020000040000fa
:101a560010b542f24703c0f20003984742f247032b
:101a6600c0f20003984700f07efe40f20003c0f289
:101a760000037f2293434ef60052cef2000293609b
:101a860041f69503c0f20003984742f24703c0f2bd
:101a96000003984742f24703c0f200039847fff756
:041aa60027fcfee734
:020000040000fa
:101aaa00f8b505000c00002015b300f021fbd4b1f5
:101aba00002040f60042c4f200220421072605e075
:101aca00976a4300ef52013084420dd0137e0b42d5
:101ada00fcd0538b334207d153683340012befd0ec
:101aea00936a2b54efe72000201a44426041c0b2a7
:021afa00f8bd35
:020000040000fa
:101afc0040f60043c4f2002340f20412c4f2120276
:101b0c001a600e4a9a81c02292025a6040f6004234
:101b1c00c4f20022d369002bfcd140f60043c4f27e
:101b2c0000231a6802210a431a6040f60042c4f2ec
:101b3c000022d369002bfcd17047c0462bf6ffff67
:020000040000fa
:101b4c0070b5c668856804000a00ae4211d1012048
:101b5c00002100f03dfdc043c943431c03d00b4b97
:101b6c001a68104018604b1c03d0084a536819407f
:101b7c005160012319006268b56011439a43ee600d
:101b8c006160a41822681343236070bd1004002008
:020000040000fa
:101b9c00f0b50f00150087b0039007220e4904a87a
:101bac001c0000f079fdbb687e6802933f6805b9a4
:101bbc0004ad1cb9280000f0adfd0400002e02dbc2
:101bcc00b44200d934000097029b220029000398ec
:0c1bdc00fff719fd07b0f0bd7c270000ea
:020000040000fa
:101be80070b5040016001d00022a1ad043689b062f
:101bf80017d439b90db940f2004528000830fef76e
:101c0800bffe010020236268a160134363602300c4
:101c1800e5603433ff22012e00d10a221a70024bec
:0c1c2800e362002070bdc046971500006c
:020000040000fa
:101c340030b51500012289b0524201920432ff32bc
:101c4400029200b9684603900491002401b14c1e2d
:101c54000594002906da4f220120074b40421a60fe
:101c640009b030bd00220790027006901a002900c6
:0c1c740001a800f099fcf3e7e007002055
:020000040000fa
:101c800041f60043c4f2002301221a6041f60042eb
:101c9000c4f20022012113691942fcd141f600432c
:101ca000c4f2002318221a60153a1a734bf67f32d9
:101cb000da6133229a7241f60042c4f200221369bb
:061cc000002bfcd170476f
:020000040000fa
:101cc6000200431e033319d84ff6ff730340042b5b
:101cd60016d8590140f21860c2f2000084466144e9
:101ce600c969002091420ad140f21862c2f200028c
:101cf60059018a5c1ab16246881800e000207047d4
:041d06000020fce7d6
:020000040000fa
:101d0a0010b540f26873c2f2000330229b5c0120d6
:101d1a0043b940f26873c2f2000308329b5c0020a8
:101d2a00012b00d010bd40f26874c2f200043733b0
:101d3a000022e2540820205600f006f93123e0542c
:041d4a000120efe79e
:020000040000fa
:101d4e00f7b597b201933b00140c86b2050c7343a2
:101d5e006f4366436543f6191c0ca4199c46a742b3
:101d6e0002d980235b02ed186346260c75192404f4
:101d7e009eb2019ba4194343200051435b1959188d
:041d8e0003b0f0bdf1
:020000040000fa
:101d920070b5d0b1d9b1002540f60042c4f200229c
:101da2000124072605e06b00c35a93620135a9425c
:101db20009d0137e2342fcd053683340012bf2d06a
:101dc200435d9362f2e7012070bd0020fce7012031
:021dd200fae72e
:020000040000fa
:101dd40010b5054c227832b9044b13b1044800e025
:101de40000bf0123237010bda807002000000000dd
:101df40000000000034b10b51bb10349034800e089
:101e040000bf10bd00000000ac070020000000006f
:020000040000fa
:101e140042f20043c4f200235a7980210a435a71e2
:101e240042f20042c4f200227c3913691942fcd107
:101e340042f20042c4f200221f2153798b43002b4b
:101e4400fbd142f20043c4f20023988a80b2704767
:020000040000fa
:101e540040f2b863c2f200031b6898420dd040f20e
:101e6400b863c2f200030122d968814206d001326c
:101e74000c33082af8d10020704700225000801843
:101e8400800040f2b863c2f200039c466044f3e76a
:020000040000fa
:101e94000c4a036810b5546a0b4a591e121b91422e
:101ea4000ad92bb10c220120084b40421a6010bd04
:101eb400102202600020fae70f22173393430360d5
:101ec400f8e7c04628070020efffff7fe007002067
:020000040000fa
:101ed400002b11d1002a0fd1002900d1002802d0f3
:101ee4000021c943081c07b4024802a1401802900b
:101ef40003bdc0469d08000003b4684601b50298be
:101f0400fef73ef9019b9e4602b00cbc7047c046ea
:020000040000fa
:101f140041f60043c4f200235a7980210a435a71de
:101f240041f60042c4f200227c3913691942fcd103
:101f340041f60042c4f200221f2153798b43002b47
:0e1f4400fbd141f60043c4f2002358697047f8
:020000040000fa
:101f520070b5050000f081fb0024002d13db6b0936
:101f62004ef20011cef200019a0054581f22154081
:101f7200ec401e3a1440aa4020339b005a50bff353
:0e1f82004f8fbff36f8f00f071fb200070bd1a
:020000040000fa
:101f9000030010b51a78202a0dd011000939042940
:101fa00009d900212b2a02d02d2a01d10131013378
:101fb00000200a2404e00133ece760430133801a77
:0e1fc0001a78303a092af8d901b9404210bd0a
:020000040000fa
:101fce0010b542f20043c4f200235b7aabb142f289
:101fde000043c4f20023987ac0b233229a7240f2c0
:101fee00c473c2f200031b683bb130b140f2c4733c
:0c1ffe00c2f2000359681b68984710bd30
:020000040000fa
:10200a0010b50400fff77cfeb0b12000fff756fec2
:10201a00040078b1437843b90023237563752370ac
:10202a00002400f0c6f9200010bdfff7fefb0023d4
:0c203a006370f1e70124f4e70124f4e7ef
:020000040000fa
:022046007047e1
:020000040000fa
:102048000309013b1800202b08d940f2ff129342e4
:1020580005d8094adb089b18043b1878704741f6f5
:1020680000423f209342f9d8034adb099b18043bfe
:0c20780018781030f2e7c046f0180000a5
:020000040000fa
:102084001c2101231b04984201d3000c10391b0aa4
:10209400984201d3000a08391b09984201d3000968
:1020a400043902a2105c40187047c04604030202bf
:0c20b4000101010100000000000000001c
:020000040000fa
:1020c00040f20043c4f2000300221a819a790121f0
:1020d0000a439a719b7803221340022b0cd040f2e2
:1020e0000043c4f20003013a9a705202c4f20002a3
:0a20f000012193790b42fcd07047e8
:020000040000fa
:1020fa0040f60043c4f200235b8b5b0713d040f623
:10210a000043c4f2002380221a76793a5a831b7e4e
:10211a005b0708d540f60043c4f2002304219a6afb
:08212a001a7e0a42fbd1704746
:020000040000fa
:1021320040f26873c2f200035b6b73b168b10021b5
:1021420005e09a68801a99609b6933b128b19a6850
:102152008242f6d39a68101a986040f26873c2f20b
:0821620000035a691a6170477d
:020000040000fa
:02216a00fee78e
:020000040000fa
:10216c00f0b5040000200b4e4200955d1db9094be3
:10217c00d2185078f0bd216801300f78c0b2af4250
:10218c0004d1044b0131d218507821600a28ebd9c4
:08219c00f0e7c04644250000f5
:020000040000fa
:1021a400436870b50400d80510d52569954200d957
:1021b40015002a00606900f073fa226963695b19eb
:1021c400551b0022636125611a7070bddb06fcd4c7
:0821d400200000f06efaf8e7ac
:020000040000fa
:1021dc0044f20043c4f200231a7802210a431a7015
:1021ec0044f20042c4f200220121937a0b42fcd04b
:1021fc0044f20043c4f200231a7802218a431a7075
:04220c00186a704795
:020000040000fa
:10221000f8b5050001262c68344201d000200ee0fc
:102220002000fff711ff070000f07ef92868a042a8
:10223000f1d1b043281a3900fff788fc0120f8bd1e
:020000040000fa
:10224000f8b5050001276c683c4201d000200de084
:102250002000fff7f9fe060000f066f96b68a34264
:0e226000f1d128003100fff771fc0120f8bd1c
:020000040000fa
:02226e007047b7
:020000040000fa
:10227000bff35f8f62b64ef20012cef2000240f260
:1022800038315358044803404cf200000343535084
:0c22900080239b0453607047ff00ffff99
:020000040000fa
:10229c00074b0200196809b9064919601868064904
:1022ac0082188a4201d81a60704701204042fbe72d
:0c22bc00e4070020e0080020e00a0020f9
:020000040000fa
:1022c80070b504000e001500fff7c0fd20b10460d2
:1022d80046608560002070bd02304042fff7b6fdc1
:0a22e8000028f4d184204042f5e7fd
:020000040000fa
:1022f200002380290fdb812901dd83290bd10721ee
:10230200136807338b431900083111601a685b6840
:0a23120002604360012318007047c9
:020000040000fa
:10231c00020000234832d356591e0b43137004237a
:10232c00426813402bb110231343436001204042f9
:0a233c0070470364c3631800fae75a
:020000040000fa
:10234600f7b5002507000c002e000192019b9e4266
:1023560001db2800febd62682168380000f06df8d8
:0823660001362d180834f1e7df
:020000040000fa
:10236e00f7b5002507000c002e000192019b9e423e
:10237e0001db2800febd62682168380000f0b0f86d
:08238e0001362d180834f1e7b7
:020000040000fa
:10239600012370b544689c43651a102d0ad942186a
:1023a60019432b43116053600832035141601000fa
:0623b600fef727fe70bdda
:020000040000fa
:1023bc0010b540f26874c2f200043123e15c0820cd
:1023cc00205600f046f83023e35c13b93822012183
:0423dc00a15410bd3b
:020000040000fa
:1023e00041f60043c4f200231a6802210a431a602e
:1023f00041f60042c4f2002213691942fcd1704731
:020000040000fa
:1024000042f20043c4f200231a6802210a431a6010
:1024100042f20042c4f2002213691942fcd1704713
:020000040000fa
:1024200042f20043c4f200231a6802218a431a6070
:1024300042f20042c4f2002213691942fcd17047f3
:020000040000fa
:1024400010b503000c00002043b9180032b101217f
:0e2450002000fff72afb0028f9d0012010bd64
:020000040000fa
:10245e0061b100280adb43091f2210401e3a824058
:0e246e004ef20011cef200019b005a50704752
:020000040000fa
:10247c0040f26873c2f200031b69834201d2c01a96
:0e248c007047c01a80235b029c466044f8e74c
:020000040000fa
:10249a0041f60043c4f20023586141f60042c4f2f7
:0c24aa000022102113691942fcd1704778
:020000040000fa
:1024b60042f20043c4f20023988342f20042c4f27f
:0c24c6000022402113691942fcd170472c
:020000040000fa
:1024d20042f20043c4f20023d88342f20042c4f223
:0c24e2000022802113691942fcd17047d0
:020000040000fa
:1024ee0070b50d001400012801d0200070bd210030
:0c24fe002800fff747fc0028f9d0f6e7a3
:020000040000fa
:02250a00704718
:020000040000fa
:10250c00e926000001240000212400002f270000f0
:0c251c00b7240000d3240000151e0000ae
:020000040000fa
:10252800054a0130c00083582bb90300083b9b18ab
:0c25380081184b60835070471004002095
:020000040000fa
:1025440068076c094c836a9074a07ac0008068881c
:0c25540000846c820081286e696c2900f4
:020000040000fa
:1025600043f20003c4f2000301224c215a5401310a
:0a2570005a5435322b399954704744
:020000040000fa
:10257a0040f2e873c2f200031b782bb940f2e87309
:0a258a00c2f2000301221a7070472c
:020000040000fa
:1025940010b50400fff7c0fe28b9a368e268a36180
:0825a40063619b18a36210bde6
:020000040000fa
:1025ac0013b50400019201aafdf774ff6368db0602
:0825bc0001d50120404216bdcb
:020000040000fa
:1025c400d0400b1cd1409c46203ad3401843524281
:1025d40063469340184370479140031c90409c46c7
:1025e400203a9340194352426346d34019437047fb
:020000040000fa
:1025f400006810b5002801da002010bdfff74cfe7a
:06260400431cfad1f8e7c7
:020000040000fa
:10260a000eb403b503aa02ca019200f018f802b088
:06261a0008bc03b01847e4
:020000040000fa
:1026200010b542f26571c0f2000100220020fff7f0
:042630004bfe10bd90
:020000040000fa
:1026340010b500f09df8024b1860586010bdc046fc
:04264400cc0700209f
:020000040000fa
:1026480010b513000a000249fff7f0fa10bdc046a2
:04265800ffffff7f02
:020000040000fa
:10265c00eff3108072b6bff35f8f43425841c0b2a4
:02266c007047b5
:020000040000fa
:10266e0018b1bff35f8f62b6704772b6bff35f8f5c
:02267e00fae779
:020000040000fa
:1026800044f20003c4f2001306225a60053a1a729b
:02269000704791
:020000040000fa
:102692004a424a4110b5520040f20043fff7a3fa02
:0226a20010bd69
:020000040000fa
:1026a400002310b59a4200d110bdcc5cc454013350
:0226b400f8e745
:020000040000fa
:1026b600c36a10b50bb1984710bd0068fff714ff49
:0226c600fae731
:020000040000fa
:1026c80003001218934200d1704719700133f9e7db
:020000040000fa
:1026d80010b5fff7abfffff714fffff712ff10bdb0
:020000040000fa
:0e26e80040f2c473c2f20003186059607047dc
:020000040000fa
:0e26f60040f2e873c2f2000300221a7070472f
:020000040000fa
:0e2704000300413b192b01d8202318437047d6
:020000040000fa
:0e2712000300613b192b01d85f23184070476c
:020000040000fa
:0e27200003001a780ab9181a70470133f9e756
:020000040000fa
:0a272e0046f60040c0f2dc207047c0
:020000040000fa
:0a27380010b50068fff7d7fe10bdd2
:020000040000fa
:0827420010b5fff78aff10bd7e
:020000040000fa
:08274a0010b5fff78fff10bd71
:020000040000fa
:022752007047ce
:020000040000fa
:082754000c2500003900000013
:020000040000fa
:08275c0010b5fff70cff10bde2
:020000040000fa
:0827640000487047f1feffff81
:020000040000fa
:08276c0010b5fef78dff10bd52
:020000040000fa
:082774000048704758080020de
:020000040000fa
:07277c00286e756c6c29004a
:020000040000fa
:06278400012040427047f5
:020000040000fa
:04278a000020704774
:020000040000fa
:04278e000020704770
:020000040000fa
:042794007047c04684
:020000040000fa
:042798000020704766
:020000040000fa
:0200000400807a
:0440000077438fb0c3
:020000040000fa
:0200000400807a
:04400400bbf0ffff0f
:020000040000fa
:0200000400807a
:04c004000000e8ff51
:020000040000fa
:0200000400807a
:04c04000ffffffff00
:020000040000fa
:0200000400807a
:04c04400fffffffffc
:020000040000fa
:0200000400807a
:04c04800fffffffff8
:020000040000fa
:0200000400807a
:04c04c00fffffffff4
:00000001FF
