:020000040000fa
:10000000f07f0020c9040000770700007907000096
:1000100000000000000000000000000000000000e0
:100020000000000000000000000000007307000056
:1000300000000000000000007307000073070000cc
:1000400073070000730700007307000073070000c8
:1000500073070000730700007307000073070000b8
:1000600073070000730700007307000073070000a8
:100070007307000073070000730700007307000098
:100080007307000073070000730700007307000088
:100090007307000073070000730700007307000078
:1000a0007307000073070000730700007307000068
:1000b0007307000073070000730700007307000058
:1000c0007307000073070000730700007307000048
:1000d0007307000073070000730700007307000038
:1000e0007307000073070000730700007307000028
:1000f0007307000073070000730700007307000018
:100100007307000073070000730700007307000007
:100110007307000073070000730700000000000071
:100120007307000000000000730700007307000061
:1001300073070000730700007307000073070000d7
:1001400073070000730700007307000073070000c7
:10015000000000007307000073070000f07f00201c
:10016000c9040000770700007907000000000000c4
:10017000000000000000000000000000000000007f
:1001800000000000000000007307000000000000f5
:1001900000000000730700007307000073070000f1
:1001a0007307000073070000730700007307000067
:1001b0007307000073070000730700007307000057
:1001c0007307000073070000730700007307000047
:1001d0007307000073070000730700007307000037
:1001e0007307000073070000730700007307000027
:1001f0007307000073070000730700007307000017
:100200007307000073070000730700007307000006
:1002100073070000730700007307000073070000f6
:1002200073070000730700007307000073070000e6
:1002300073070000730700007307000073070000d6
:1002400073070000730700007307000073070000c6
:1002500073070000730700007307000073070000b6
:1002600073070000730700007307000073070000a6
:1002700073070000730700007b070000730700008e
:100280007b0700007307000073070000730700007e
:100290007307000073070000730700007307000076
:1002a0007307000073070000730700007b0700005e
:0802b000730700007307000052
:020000040000fa
:1002b80010b500f07af901235840c0b2404201005d
:1002c80002000300844610bc02bc864681f3008805
:1002d8000c470000f8b5c046f8bc08bc9e467047fd
:1002e80019060000f8b5c046f8bc08bc9e46704721
:0402f800f505000008
:020000040000fa
:1002fc0041f20003c4f200030220187641f20041df
:10030c00c4f2000100220a7441f60001c4f200019b
:10031c0008621a8641f20002c4f2000280214904ec
:10032c0013690b42fcd046f22003c0f280031b6819
:10033c005b009b0e9b0240f200221343d200c4f2de
:10034c000002536341f20002c4f20002802149040e
:10035c0013690b42fcd041f20003c4f200030222e9
:10036c001a86d202c4f200028021490413690b429e
:10037c00fcd041f60043c4f2000340f20712c0f275
:10038c0001021a6241f60042c4f2000204215368d1
:10039c001942fcd141f60043c4f20003cc224021a7
:1003ac00995041f60042c4f20002cc201358194275
:1003bc00fcd041f60043c4f20003dc2240219950ea
:1003cc0041f60042c4f20002dc2013581942fcd062
:1003dc0041f60043c4f20003e0224021995041f65b
:1003ec000042c4f20002e02013581942fcd07047be
:020000040000fa
:1003fc000021f0b5174b184a934208d340f20b0c6e
:10040c000027164a1368516823b919b9f0bd197041
:10041c000133f1e7100095680c305c18b5b16546f6
:10042c00ed1a5219a3420ad10b00032213405a1e93
:10043c00934189085918890040180200e2e75d1cb5
:10044c00ae5c1e702b00ede71f700133a342fbd195
:10045c00f3e7c04600000020000000203406000036
:020000040000fa
:10046c0000230e4a10b513600d4a0e4c13600e4a51
:10047c0013600e4a13600e4a13600e4a53621361e6
:10048c000133936000f074f900f072f90a4b9c424e
:10049c0000d310bd08cc9847f8e7c0467000002088
:1004ac000c000020e80200000800002000000020e2
:0c04bc000400002010000020ec020000f2
:020000040000fa
:1004c80010b540f27573c0f20003984740f2757397
:1004d800c0f20003984700f041f940f20003c0f26f
:1004e80000037f2293434ef60052cef2000293603f
:1004f80040f26d43c0f20003984740f27573c0f2b2
:100508000003984740f27573c0f20003984700f063
:0405180029f8fee7d9
:020000040000fa
:10051c0040f60043c4f2002340f20412c4f210026d
:10052c001a600e4a9a81c02292025a6040f600422a
:10053c00c4f20022d369002bfcd140f60043c4f274
:10054c0000231a6802210a431a6040f60042c4f2e2
:10055c000022d369002bfcd17047c0462bf6ffff5d
:020000040000fa
:10056c0010b582b08023db021c68002000f0b2f8ca
:10057c00631c0fd084f388880423c0f204031b6827
:10058c000193019c640864002000210022002300d8
:10059c0000f087f840f26c74c0f2000404212000d3
:0605ac0000f001f8fae77f
:020000040000fa
:1005b20070b5d0b1d9b1002540f60042c4f2002294
:1005c2000124072605e06b00c35a93620135a94254
:1005d20009d0137e2342fcd053683340012bf2d062
:1005e200435d9362f2e7012070bd0020fce7012029
:0205f200fae726
:020000040000fa
:1005f40010b5054c227832b9044b13b1044800e01d
:1006040000bf0123237010bd500000200000000033
:1006140000000000034b10b51bb10349034800e080
:1006240000bf10bd000000005400002000000000c6
:020000040000fa
:10063400500000201c000000000000006c0000209e
:100644000400000000000000000000205000000032
:100654000000000070000020040000000000000002
:100664000000000000000000444444444444444466
:020000040000fa
:1006740040f20043c4f2000300221a819a79012156
:100684000a439a719b7803221340022b0cd040f248
:100694000043c4f20003013a9a705202c4f2000209
:0a06a400012193790b42fcd070474e
:020000040000fa
:1006ae00e0b545464e465746e0b45d4620b4254675
:1006be0026462746a046a146a246a346a44684f354
:1006ce000088a44720bcab46e0bcba46b146a8465b
:0206de00e0bd7d
:020000040000fa
:1006e00010b5fff7c7ff45f20003c4f20013042260
:1006f0005a6000f00bf8fff701fefff70fff00f064
:0c07000028f800f035f800f014f810bde7
:020000040000fa
:10070c0043f20023c4f2000301224c215a5401315c
:10071c005a5435322b39995443f20002da66ec22e2
:06072c0000219950704706
:020000040000fa
:10073200bff35f8f62b64ef20013cef2000340f2b7
:100742008422985880218904014399509b5870470c
:020000040000fa
:1007520045f20003c4f2001306225a60053a1a72e7
:020762007047de
:020000040000fa
:0807640010b5fff749fe10bdbe
:020000040000fa
:04076c00626c61005a
:020000040000fa
:020770007047d0
:020000040000fa
:02077200fee7a0
:020000040000fa
:020774007047cc
:020000040000fa
:02077600fee79c
:020000040000fa
:02077800fee79a
:020000040000fa
:02077a00fee798
:020000040000fa
:02077c007047c4
:020000040000fa
:020000040003f7
:08fe00007fe97fe9c0f758ba61
:020000040000fa
:0200000400807a
:0440000077438fb0c3
:020000040000fa
:0200000400807a
:04400400bbf0ffff0f
:020000040000fa
:0200000400807a
:04400800008430f010
:020000040000fa
:0200000400807a
:04400c0000ffffffb3
:020000040000fa
:0200000400807a
:0440100000000000ac
:020000040000fa
:0200000400807a
:0440140002000000a6
:020000040000fa
:0200000400807a
:044018008002020020
:020000040000fa
:0200000400807a
:04401c0000000000a0
:020000040000fa
:0200000400807a
:04402000b67376e815
:020000040000fa
:0200000400807a
:04c00000ffff07f047
:020000040000fa
:0200000400807a
:04c004000000e8ff51
:020000040000fa
:0200000400807a
:04c00800cc9a34c0da
:020000040000fa
:0200000400807a
:04c01000ffffffff30
:020000040000fa
:0200000400807a
:04c01400ffffffff2c
:020000040000fa
:0200000400807a
:04c01800ffffffff28
:020000040000fa
:0200000400807a
:04c01c00ffffffff24
:020000040000fa
:0200000400807a
:04c02000ffffffff20
:020000040000fa
:0200000400807a
:04c02400ffffffff1c
:020000040000fa
:0200000400807a
:04c02800ffffffff18
:020000040000fa
:0200000400807a
:04c02c00ffffffff14
:020000040000fa
:0200000400807a
:04c03000ffffffff10
:020000040000fa
:0200000400807a
:04c03400ffffffff0c
:020000040000fa
:0200000400807a
:04c03800ffffffff08
:020000040000fa
:0200000400807a
:04c03c00ffffffff04
:020000040000fa
:0200000400807a
:04c04000ffffffff00
:020000040000fa
:0200000400807a
:04c04400fffffffffc
:020000040000fa
:0200000400807a
:04c04800fffffffff8
:020000040000fa
:0200000400807a
:04c04c00fffffffff4
:020000040000fa
:0200000400807a
:04c05000fffffffff0
:020000040000fa
:0200000400807a
:04c05400ffffffffec
:020000040000fa
:0200000400807a
:04c05800ffffffffe8
:020000040000fa
:0200000400807a
:04c05c00ffffffffe4
:020000040000fa
:0200000400807a
:04c06000ffffffffe0
:020000040000fa
:0200000400807a
:04c06400ffffffffdc
:020000040000fa
:0200000400807a
:04c06800ffffffffd8
:020000040000fa
:0200000400807a
:04c06c00ffffffffd4
:020000040000fa
:0200000400807a
:04c07000ffffffffd0
:020000040000fa
:0200000400807a
:04c07400ffffffffcc
:020000040000fa
:0200000400807a
:04c07800ffffffffc8
:020000040000fa
:0200000400807a
:04c07c00ffffffffc4
:020000040000fa
:0200000400807a
:04c08000ffffffffc0
:020000040000fa
:0200000400807a
:04c08400ffffffffbc
:020000040000fa
:0200000400807a
:04c08800ffffffffb8
:020000040000fa
:0200000400807a
:04c08c00ffffffffb4
:020000040000fa
:0200000400807a
:04c0e000ffffffff60
:020000040000fa
:0200000400807a
:04c0e400ffffffff5c
:020000040000fa
:0200000400807a
:04c0e800ffffffff58
:020000040000fa
:0200000400807a
:04c0ec00ffffffff54
:020000040000fa
:0200000400807a
:04c0f000ffffffff50
:020000040000fa
:0200000400807a
:04c0f400ffffffff4c
:020000040000fa
:0200000400807a
:04c0f800ffffffff48
:020000040000fa
:0200000400807a
:04c0fc00ffffffff44
:00000001FF
